:020000040000FA
:1000000060060020090100003701000039010000EE
:1000100000000000000000000000000000000000E0
:100020000000000000000000000000003B01000094
:1000300000000000000000003D0100003F01000042
:1000400041010000410100004101000041010000A8
:100050004101000041010000410100004101000098
:100060004101000041010000410100004101000088
:100070004101000041010000410100004101000078
:10008000410100004101000000F002F800F02CF8EE
:100090000AA090E8000C82448344AAF10107DA45E3
:1000A00001D100F021F8AFF2090EBAE80F0013F009
:1000B000010F18BFFB1A43F001031847000E0000A0
:1000C000100E00000023002400250026103A28BF4F
:1000D00078C1FBD8520728BF30C148BF0B607047BA
:1000E0001FB51FBD10B510BD00F047F81146FFF752
:1000F000F7FF00F0F1FD00F065F803B4FFF7F2FF41
:1001000003BC00F06DF80000114880F308884FF040
:1001100004000168090E4FF01F02914207D10D48FB
:100120004FF0010101600C484FF0000101600B48E5
:1001300080470B480047FEE7FEE7FEE7FEE7FEE7E5
:10014000FEE7000007480849084A094B70470000CD
:100150006006002018100240000001400108000065
:10016000890000006000002060060020600200207E
:1001700060020020704770477047754600F02CF809
:10018000AE4605006946534620F00700854618B084
:1001900020B5FFF7D7FFBDE820404FF000064FF035
:1001A00000074FF000084FF0000B21F00701AC46AC
:1001B000ACE8C009ACE8C009ACE8C009ACE8C009CB
:1001C0008D46704710B50446AFF300802046BDE869
:1001D0001040FFF792BF0000004870470000002069
:1001E00001491820ABBEFEE7260002007047000060
:1001F00001490860704700001C14004002490A6869
:1002000060F341020A6070472C1400400149086005
:100210007047000028140040014908607047000042
:100220002014004002490A6860F307020A60704720
:100230002414004002490A6860F308220A607047EB
:100240002414004002490A6860F3C3020A60704740
:100250002C14004002490A6860F300020A607047EB
:100260002C14004002490A6860F382020A60704759
:100270002C14004002490A6860F304120A607047B7
:100280002C14004002490A6860F3CB220A607047D0
:100290002414004002490A6860F38A220A60704709
:1002A0002414004002490A6860F30C320A60704767
:1002B0002414004002490A6860F349220A6070472A
:1002C0002414004004490A68C0B222F4784242EA89
:1002D000C0400860704700003414004002490A68BA
:1002E00060F30A020A6070473414004002490A6849
:1002F00060F345120A6070472C14004004490A68F4
:1003000000F01F0022F47F0242EAC020086070471C
:100310003414004002490A6860F31F620A607047A3
:100320003414004001228240002902D003480260B8
:1003300070470248103002607047000018180240F1
:1003400010B50B4601460220FFF7ECFF184600F0FF
:100350000DFABDE81040012000F0B6BC10B5002138
:100360000846FFF7DFFF4FF4C87000F0ADFC012135
:100370000020FFF7D7FF9C4C204600F0A5FC112180
:100380000020FFF7DDFF204600F09EFCB121002099
:10039000FFF7D6FF00210120FFF7D2FF082101203F
:1003A000FFF7CEFF05210120FFF7CAFFB221002091
:1003B000FFF7C6FF05210120FFF7C2FF3A21012008
:1003C000FFF7BEFF3A210120FFF7BAFFB32100205B
:1003D000FFF7B6FF05210120FFF7B2FF3A21012008
:1003E000FFF7AEFF3A210120FFF7AAFF0521012008
:1003F000FFF7A6FF3A210120FFF7A2FF3A210120D3
:10040000FFF79EFFB4210020FFF79AFF0321012090
:10041000FFF796FFC0210020FFF792FF6221012025
:10042000FFF78EFF02210120FFF78AFF0421012040
:10043000FFF786FFC1210020FFF782FFC0210120C6
:10044000FFF77EFFC2210020FFF77AFF0D21012078
:10045000FFF776FF00210120FFF772FFC321002084
:10046000FFF76EFF8D210120FFF76AFF6A2101204F
:10047000FFF766FFC4210020FFF762FF8D210120F6
:10048000FFF75EFFEE210120FFF75AFFC521002094
:10049000FFF756FF08210120FFF752FFE02100205F
:1004A000FFF74EFF03210120FFF74AFF1B21012028
:1004B000FFF746FF12210120FFF742FF1121012023
:1004C000FFF73EFF3F210120FFF73AFF3A210120CD
:1004D000FFF736FF32210120FFF732FF34210120E0
:1004E000FFF72EFF2F210120FFF72AFF2B210120EC
:1004F000FFF726FF30210120FFF722FF3A210120DC
:10050000FFF71EFF00210120FFF71AFF0121084617
:10051000FFF716FF02210120FFF712FF052101203E
:10052000FFF70EFFE1210020FFF70AFF0321012062
:10053000FFF706FF1B210120FFF702FF1221012018
:10054000FFF7FEFE11210120FFF7FAFE3221012004
:10055000FFF7F6FE2F210120FFF7F2FE2A210120EE
:10056000FFF7EEFE2F210120FFF7EAFE2E210120EA
:10057000FFF7E6FE2C210120FFF7E2FE35210120E6
:10058000FFF7DEFE3F210120FFF7DAFE0021012008
:10059000FFF7D6FE00210120FFF7D2FE0121084619
:1005A000FFF7CEFE05210120FFF7CAFE3A21002009
:1005B000FFF7C6FE05210120FFF7C2FE362100200D
:1005C000FFF7BEFE40210120FFF7BAFE29210020DF
:1005D000FFF7B6FE2C210020FFF7B2FE0121BDE897
:1005E00010400220FFF79EBE801A06000E480168E8
:1005F0000E4A114301600C481438016841F0FF01B4
:10060000016009480838016841F0FF0101600648AF
:100610001838016801600648016841F480510160A2
:10062000044800F051BB00002018024010001111D6
:10063000201D0240801A060010B5012000F070F85D
:10064000002000F099F8002000F0ACF8012000F044
:10065000BFF8002000F098F8002000F071F80720A3
:1006600000F07CF8012000F097F8002000F0A8F8D6
:10067000022000F06DF8002000F0B2F8022000F037
:10068000B7F8BDE8104000F040B82DE9F04104464D
:100690000D4616461F462A210020FFF751FE210A6B
:1006A0000120FFF74DFEE1B20120FFF749FE290AC4
:1006B0000120FFF745FEE9B20120FFF741FE2B21A3
:1006C0000020FFF73DFE310A0120FFF739FEF1B2AD
:1006D0000120FFF735FE390A0120FFF731FEF9B29C
:1006E0000120FFF72DFEBDE8F0412C210020FFF78F
:1006F00027BE10B50C4601460120FFF721FE21461A
:10070000BDE810400120FFF71BBE012000F052B8E9
:1007100002490A6860F308220A607047180802401C
:1007200002490A6860F349220A60704718080240CB
:1007300002490A6860F386120A607047180802408E
:1007400002490A6860F385020A607047F4180040A5
:1007500001490860704700001418004002490A6807
:1007600060F314420A6070470018004001490860B5
:10077000704700006018004002490A6860F30512E3
:100780000A6070470018004002490A6860F30922B5
:100790000A607047F4180040014908607047000083
:1007A0001018004002490A6860F356520A60704708
:1007B0000018004001490860704700000818004018
:1007C00002490A6860F318620A6070470018004026
:1007D00002490A6860F309220A6070470018004065
:1007E00002490A6860F301020A607047F418004089
:1007F00002490A6860F3CF220A607047F41800408B
:1008000070474FF080410A6AC0EA020008627047F0
:100810004FF080414A6860F387124A6070474FF09A
:1008200080414A6860F392424A6070474FF08041CD
:100830004A6860F308224A6070474FF080414A6876
:1008400060F310424A6070474FF080414A6860F39D
:1008500003024A6070474FF080414A6860F351429A
:100860004A6070474FF080414A6860F3D3424A6063
:1008700070474FF080414A6860F305124A60704744
:100880004FF080414A6860F314524A60704700009C
:1008900010B5FF20FFF73EFDFF20FFF713FD0220FC
:1008A000FFF72CFD40F2FF70FFF718FD0020FFF767
:1008B0001DFD0120FFF7DEFC0020FFF7C3FC012037
:1008C000FFF7D0FC0020FFF799FC0120FFF7C2FCE6
:1008D0000120FFF7E7FC0120FFF7D4FC0120FFF720
:1008E000D9FC0120FFF7E6FCA021FE2000F0BCFAB5
:1008F000A021FE2000F0B8FAA021FE2000F0B4FAFA
:100900000021F62000F0B0FA1121FA2000F0ACFA34
:100910001221FC2000F0A8FA0021FE2000F0A4FA29
:100920007021492000F0A0FA80214A2000F09CFAB2
:100930005D214B2000F098FA0021032000F094FA8A
:10094000FA21042000F090FA4121012000F08CFAF5
:100950001221022000F088FA01210F2000F084FA11
:1009600030210D2000F080FAC821122000F07CFA1E
:100970005421142000F078FA3221152000F074FA86
:100980000421162000F070FA1921172000F06CFAEB
:10099000B9211D2000F068FA15211F2000F064FA2B
:1009A00000217A2000F060FA14217B2000F05CFA2C
:1009B00036217D2000F058FA1021FE2000F054FA74
:1009C0007E21202000F050FAB821222000F04CFABD
:1009D0005521242000F048FA8721262000F044FA0F
:1009E0000021392000F040FA80213A2000F03CFA42
:1009F00000213B2000F038FAA0213C2000F034FA1E
:100A0000A0213E2000F030FA2F212A2000F02CFAFD
:100A10004621372000F028FA18213F2000F024FA60
:100A20003C21502000F020FA4F21522000F01CFA07
:100A30008121532000F018FA4321542000F014FAC9
:100A40007821562000F010FAAA21572000F00CFA65
:100A5000FF21582000F008FA60215B2000F004FA22
:100A600080215C2000F000FA2821AB2000F0FCF986
:100A7000B521AC2000F0F8F94521602000F0F4F930
:100A80006821622000F0F0F91321632000F0ECF9F6
:100A90004321642000F0E8F91321652000F0E4F917
:100AA0002621662000F0E0F90721672000F0DCF93C
:100AB000F521682000F0D8F9EA21692000F0D4F986
:100AC00021216A2000F0D0F921216B2000F0CCF91F
:100AD000E4216C2000F0C8F9FB216D2000F0C4F97E
:100AE0003021812000F0C0F93021822000F0BCF9D3
:100AF0004A21832000F0B8F90621852000F0B4F9DE
:100B000078218D2000F0B0F925218E2000F0ACF97D
:100B10003821902000F0A8F95021922000F0A4F98B
:100B200032219D2000F0A0F964219E2000F09CF964
:100B3000F4219F2000F098F92821A32000F094F9D7
:100B40000121A42000F090F91E21B12000F08CF9C1
:100B50002021B32000F088F97021BD2000F084F935
:100B60005821BE2000F080F9A021BF2000F07CF9C0
:100B70000021FE2000F078F9A821432000F074F94C
:100B8000F221B02000F070F94021B52000F06CF99E
:100B90000521B82000F068F96021BA2000F064F95E
:100BA0000221FE2000F060F90121084600F05CF906
:100BB0008021022000F058F90021032000F054F9B0
:100BC0002021042000F050F900210A2000F04CF907
:100BD0001021132000F048F90021242000F044F9EE
:100BE0000321282000F040F90021FE2000F03CF90C
:100BF000F821222000F038F92B480021002204C0FF
:100C0000491C6429FBDB29480168294B1943016011
:100C10002848016841F003010160440622620C206B
:100C200020602260626024484FF4484141612349BA
:100C300081612349C161234901610320FFF7E1FD7F
:100C40000F20FFF701FE0320FFF713FE0320FFF73D
:100C5000DFFD0020FFF706FE0020FFF7FCFD01206E
:100C6000FFF70EFE0120FFF7E1FD0020FFF7E5FD95
:100C70000120FFF7D4FD102020600E4814380168D1
:100C800041F0020101600B480838016821F00301BE
:100C9000016001210220FFF745FB0321BDE8104060
:100CA000F12000F0E1B800000010002024180240FC
:100CB00020000200201B02400000024018000040FB
:100CC0006018004021001400002101E000BF491C11
:100CD000B1EB800FFADB704700F08CF83AA000F01F
:100CE000A7F80024FFF782FCFFF7A6FCFFF736FB0E
:100CF0000022EF2340F23F111046FFF7C6FC4FF4ED
:100D0000963500210846FFF7F4FC641CAC42F8DB82
:100D1000C7232822EF215020FFF7B7FC00244FF40F
:100D2000C8450021F820FFF7E4FC641CAC42F8DB66
:100D30002D48016841F0800101602B48183001689E
:100D400041F00051016029490A6842F004020A603A
:100D5000264918310A6842F400720A6024490A6878
:100D600042F400420A60016841F0020101601E483D
:100D7000001D016841F0020101601B4C1034206825
:100D800040F0020020606420FFF79EFF164D2035E2
:100D9000286840F0020028606420FFF795FF206873
:100DA00040F0020020606420FFF78EFF286840F0CA
:100DB000020028600120FFF7ABFC0120FFF7B8FC20
:100DC000FFF766FDFEE700000A3D3D3D3D204C4338
:100DD000442053435245454E205445535453203DDF
:100DE0003D3D3D0A0000000008190240081D024078
:100DF000001000400C48016841F4807101600A480D
:100E00000C30016841F480710160074824300168AA
:100E100041F0020101600549822008600349C020B9
:100E20001C3908607047000000190240200400408F
:100E300010B50C490C220A6040220A60002207E02B
:100E40004C69A407FCD5CB614B699B05FCD4521CB3
:100E5000835C002BF4D1002044F62061401C8842C2
:100E6000FCDB10BD000400402DE9F04107460E46B2
:100E7000114C4FF0FF3525600020FFF7DBF9022011
:100E8000FFF7D0F90120FFF7C1F94020FFF7B0F9D3
:100E900022681207FCD5082020603846FFF7BCF90D
:100EA0003046FFF7B9F920688005FCD54FF4007093
:100EB00020602560BDE8F08118140040CC0E0000D1
:0C0EC0000000002060060000C4000000DC
:04000005000000896E
:00000001FF
